{
  "contractName": "DStorage",
  "abi": [
    {
      "inputs": [],
      "payable": false,
      "stateMutability": "nonpayable",
      "type": "constructor"
    },
    {
      "anonymous": false,
      "inputs": [
        {
          "indexed": false,
          "internalType": "uint256",
          "name": "fileId",
          "type": "uint256"
        },
        {
          "indexed": false,
          "internalType": "string",
          "name": "fileHash",
          "type": "string"
        },
        {
          "indexed": false,
          "internalType": "uint256",
          "name": "fileSize",
          "type": "uint256"
        },
        {
          "indexed": false,
          "internalType": "string",
          "name": "fileType",
          "type": "string"
        },
        {
          "indexed": false,
          "internalType": "string",
          "name": "fileName",
          "type": "string"
        },
        {
          "indexed": false,
          "internalType": "string",
          "name": "fileDescription",
          "type": "string"
        },
        {
          "indexed": false,
          "internalType": "string[]",
          "name": "tags",
          "type": "string[]"
        },
        {
          "indexed": false,
          "internalType": "bool",
          "name": "isPrivate",
          "type": "bool"
        },
        {
          "indexed": false,
          "internalType": "address[]",
          "name": "shareTo",
          "type": "address[]"
        },
        {
          "indexed": false,
          "internalType": "uint256",
          "name": "uploadTime",
          "type": "uint256"
        },
        {
          "indexed": false,
          "internalType": "address payable",
          "name": "uploader",
          "type": "address"
        }
      ],
      "name": "FileUploaded",
      "type": "event"
    },
    {
      "constant": true,
      "inputs": [],
      "name": "fileCount",
      "outputs": [
        {
          "internalType": "uint256",
          "name": "",
          "type": "uint256"
        }
      ],
      "payable": false,
      "stateMutability": "view",
      "type": "function"
    },
    {
      "constant": true,
      "inputs": [
        {
          "internalType": "uint256",
          "name": "",
          "type": "uint256"
        }
      ],
      "name": "files",
      "outputs": [
        {
          "internalType": "uint256",
          "name": "fileId",
          "type": "uint256"
        },
        {
          "internalType": "string",
          "name": "fileHash",
          "type": "string"
        },
        {
          "internalType": "uint256",
          "name": "fileSize",
          "type": "uint256"
        },
        {
          "internalType": "string",
          "name": "fileType",
          "type": "string"
        },
        {
          "internalType": "string",
          "name": "fileName",
          "type": "string"
        },
        {
          "internalType": "string",
          "name": "fileDescription",
          "type": "string"
        },
        {
          "internalType": "bool",
          "name": "isPrivate",
          "type": "bool"
        },
        {
          "internalType": "uint256",
          "name": "uploadTime",
          "type": "uint256"
        },
        {
          "internalType": "address payable",
          "name": "uploader",
          "type": "address"
        }
      ],
      "payable": false,
      "stateMutability": "view",
      "type": "function"
    },
    {
      "constant": true,
      "inputs": [],
      "name": "name",
      "outputs": [
        {
          "internalType": "string",
          "name": "",
          "type": "string"
        }
      ],
      "payable": false,
      "stateMutability": "view",
      "type": "function"
    },
    {
      "constant": false,
      "inputs": [
        {
          "internalType": "string",
          "name": "_fileHash",
          "type": "string"
        },
        {
          "internalType": "uint256",
          "name": "_fileSize",
          "type": "uint256"
        },
        {
          "internalType": "string",
          "name": "_fileType",
          "type": "string"
        },
        {
          "internalType": "string",
          "name": "_fileName",
          "type": "string"
        },
        {
          "internalType": "string",
          "name": "_fileDescription",
          "type": "string"
        },
        {
          "internalType": "string[]",
          "name": "_tags",
          "type": "string[]"
        },
        {
          "internalType": "address[]",
          "name": "_shareTo",
          "type": "address[]"
        },
        {
          "internalType": "bool",
          "name": "_isPrivate",
          "type": "bool"
        }
      ],
      "name": "uploadFile",
      "outputs": [],
      "payable": false,
      "stateMutability": "nonpayable",
      "type": "function"
    }
  ],
  "bytecode": "0x60806040526040518060400160405280600881526020017f4453746f7261676500000000000000000000000000000000000000000000000081525060009080519060200190620000519291906200006b565b5060006001553480156200006457600080fd5b506200011a565b828054600181600116156101000203166002900490600052602060002090601f016020900481019282601f10620000ae57805160ff1916838001178555620000df565b82800160010185558215620000df579182015b82811115620000de578251825591602001919060010190620000c1565b5b509050620000ee9190620000f2565b5090565b6200011791905b8082111562000113576000816000905550600101620000f9565b5090565b90565b6112e0806200012a6000396000f3fe608060405234801561001057600080fd5b506004361061004c5760003560e01c806306fdde0314610051578063439535191461006f578063bd23f8351461008d578063f4c714b4146100a9575b600080fd5b6100596100e1565b6040516100669190610e71565b60405180910390f35b61007761017f565b6040516100849190610e93565b60405180910390f35b6100a760048036036100a29190810190610b20565b610185565b005b6100c360048036036100be9190810190610c62565b610421565b6040516100d899989796959493929190610f83565b60405180910390f35b60008054600181600116156101000203166002900480601f0160208091040260200160405190810160405280929190818152602001828054600181600116156101000203166002900480156101775780601f1061014c57610100808354040283529160200191610177565b820191906000526020600020905b81548152906001019060200180831161015a57829003601f168201915b505050505081565b60015481565b600088511161019357600080fd5b60008651116101a157600080fd5b60008451116101af57600080fd5b60008551116101bd57600080fd5b600073ffffffffffffffffffffffffffffffffffffffff163373ffffffffffffffffffffffffffffffffffffffff1614156101f757600080fd5b6000871161020457600080fd5b600160008154809291906001019190505550604051806101600160405280600154815260200189815260200188815260200187815260200186815260200185815260200184815260200182151581526020018381526020014281526020013373ffffffffffffffffffffffffffffffffffffffff168152506002600060015481526020019081526020016000206000820151816000015560208201518160010190805190602001906102b79291906106fc565b506040820151816002015560608201518160030190805190602001906102de9291906106fc565b5060808201518160040190805190602001906102fb9291906106fc565b5060a08201518160050190805190602001906103189291906106fc565b5060c082015181600601908051906020019061033592919061077c565b5060e08201518160070160006101000a81548160ff0219169083151502179055506101008201518160080190805190602001906103739291906107dc565b50610120820151816009015561014082015181600a0160006101000a81548173ffffffffffffffffffffffffffffffffffffffff021916908373ffffffffffffffffffffffffffffffffffffffff1602179055509050507f5f136bd15f16c9e4677071b3c0a058daaa3e88fe8acc20467bf84b883e739449600154898989898989888a423360405161040f9b9a99989796959493929190610eae565b60405180910390a15050505050505050565b6002602052806000526040600020600091509050806000015490806001018054600181600116156101000203166002900480601f0160208091040260200160405190810160405280929190818152602001828054600181600116156101000203166002900480156104d35780601f106104a8576101008083540402835291602001916104d3565b820191906000526020600020905b8154815290600101906020018083116104b657829003601f168201915b505050505090806002015490806003018054600181600116156101000203166002900480601f0160208091040260200160405190810160405280929190818152602001828054600181600116156101000203166002900480156105775780601f1061054c57610100808354040283529160200191610577565b820191906000526020600020905b81548152906001019060200180831161055a57829003601f168201915b505050505090806004018054600181600116156101000203166002900480601f0160208091040260200160405190810160405280929190818152602001828054600181600116156101000203166002900480156106155780601f106105ea57610100808354040283529160200191610615565b820191906000526020600020905b8154815290600101906020018083116105f857829003601f168201915b505050505090806005018054600181600116156101000203166002900480601f0160208091040260200160405190810160405280929190818152602001828054600181600116156101000203166002900480156106b35780601f10610688576101008083540402835291602001916106b3565b820191906000526020600020905b81548152906001019060200180831161069657829003601f168201915b5050505050908060070160009054906101000a900460ff169080600901549080600a0160009054906101000a900473ffffffffffffffffffffffffffffffffffffffff16905089565b828054600181600116156101000203166002900490600052602060002090601f016020900481019282601f1061073d57805160ff191683800117855561076b565b8280016001018555821561076b579182015b8281111561076a57825182559160200191906001019061074f565b5b5090506107789190610866565b5090565b8280548282559060005260206000209081019282156107cb579160200282015b828111156107ca5782518290805190602001906107ba9291906106fc565b509160200191906001019061079c565b5b5090506107d8919061088b565b5090565b828054828255906000526020600020908101928215610855579160200282015b828111156108545782518260006101000a81548173ffffffffffffffffffffffffffffffffffffffff021916908373ffffffffffffffffffffffffffffffffffffffff160217905550916020019190600101906107fc565b5b50905061086291906108b7565b5090565b61088891905b8082111561088457600081600090555060010161086c565b5090565b90565b6108b491905b808211156108b057600081816108a791906108fa565b50600101610891565b5090565b90565b6108f791905b808211156108f357600081816101000a81549073ffffffffffffffffffffffffffffffffffffffff0219169055506001016108bd565b5090565b90565b50805460018160011615610100020316600290046000825580601f10610920575061093f565b601f01602090049060005260206000209081019061093e9190610866565b5b50565b60008135905061095181611258565b92915050565b600082601f83011261096857600080fd5b813561097b61097682611059565b61102c565b915081818352602084019350602081019050838560208402820111156109a057600080fd5b60005b838110156109d057816109b68882610942565b8452602084019350602083019250506001810190506109a3565b5050505092915050565b600082601f8301126109eb57600080fd5b81356109fe6109f982611081565b61102c565b9150818183526020840193506020810190508360005b83811015610a445781358601610a2a8882610a63565b845260208401935060208301925050600181019050610a14565b5050505092915050565b600081359050610a5d8161126f565b92915050565b600082601f830112610a7457600080fd5b8135610a87610a82826110a9565b61102c565b91508082526020830160208301858383011115610aa357600080fd5b610aae838284611205565b50505092915050565b600082601f830112610ac857600080fd5b8135610adb610ad6826110d5565b61102c565b91508082526020830160208301858383011115610af757600080fd5b610b02838284611205565b50505092915050565b600081359050610b1a81611286565b92915050565b600080600080600080600080610100898b031215610b3d57600080fd5b600089013567ffffffffffffffff811115610b5757600080fd5b610b638b828c01610ab7565b9850506020610b748b828c01610b0b565b975050604089013567ffffffffffffffff811115610b9157600080fd5b610b9d8b828c01610ab7565b965050606089013567ffffffffffffffff811115610bba57600080fd5b610bc68b828c01610ab7565b955050608089013567ffffffffffffffff811115610be357600080fd5b610bef8b828c01610ab7565b94505060a089013567ffffffffffffffff811115610c0c57600080fd5b610c188b828c016109da565b93505060c089013567ffffffffffffffff811115610c3557600080fd5b610c418b828c01610957565b92505060e0610c528b828c01610a4e565b9150509295985092959890939650565b600060208284031215610c7457600080fd5b6000610c8284828501610b0b565b91505092915050565b6000610c978383610cc6565b60208301905092915050565b6000610caf8383610df0565b905092915050565b610cc0816111bd565b82525050565b610ccf816111ab565b82525050565b6000610ce082611121565b610cea8185611167565b9350610cf583611101565b8060005b83811015610d26578151610d0d8882610c8b565b9750610d188361114d565b925050600181019050610cf9565b5085935050505092915050565b6000610d3e8261112c565b610d488185611178565b935083602082028501610d5a85611111565b8060005b85811015610d965784840389528151610d778582610ca3565b9450610d828361115a565b925060208a01995050600181019050610d5e565b50829750879550505050505092915050565b610db1816111cf565b82525050565b6000610dc282611142565b610dcc818561119a565b9350610ddc818560208601611214565b610de581611247565b840191505092915050565b6000610dfb82611137565b610e058185611189565b9350610e15818560208601611214565b610e1e81611247565b840191505092915050565b6000610e3482611137565b610e3e818561119a565b9350610e4e818560208601611214565b610e5781611247565b840191505092915050565b610e6b816111fb565b82525050565b60006020820190508181036000830152610e8b8184610e29565b905092915050565b6000602082019050610ea86000830184610e62565b92915050565b600061016082019050610ec4600083018e610e62565b8181036020830152610ed6818d610db7565b9050610ee5604083018c610e62565b8181036060830152610ef7818b610db7565b90508181036080830152610f0b818a610db7565b905081810360a0830152610f1f8189610db7565b905081810360c0830152610f338188610d33565b9050610f4260e0830187610da8565b818103610100830152610f558186610cd5565b9050610f65610120830185610e62565b610f73610140830184610cb7565b9c9b505050505050505050505050565b600061012082019050610f99600083018c610e62565b8181036020830152610fab818b610e29565b9050610fba604083018a610e62565b8181036060830152610fcc8189610e29565b90508181036080830152610fe08188610e29565b905081810360a0830152610ff48187610e29565b905061100360c0830186610da8565b61101060e0830185610e62565b61101e610100830184610cb7565b9a9950505050505050505050565b6000604051905081810181811067ffffffffffffffff8211171561104f57600080fd5b8060405250919050565b600067ffffffffffffffff82111561107057600080fd5b602082029050602081019050919050565b600067ffffffffffffffff82111561109857600080fd5b602082029050602081019050919050565b600067ffffffffffffffff8211156110c057600080fd5b601f19601f8301169050602081019050919050565b600067ffffffffffffffff8211156110ec57600080fd5b601f19601f8301169050602081019050919050565b6000819050602082019050919050565b6000819050602082019050919050565b600081519050919050565b600081519050919050565b600081519050919050565b600081519050919050565b6000602082019050919050565b6000602082019050919050565b600082825260208201905092915050565b600082825260208201905092915050565b600082825260208201905092915050565b600082825260208201905092915050565b60006111b6826111db565b9050919050565b60006111c8826111db565b9050919050565b60008115159050919050565b600073ffffffffffffffffffffffffffffffffffffffff82169050919050565b6000819050919050565b82818337600083830152505050565b60005b83811015611232578082015181840152602081019050611217565b83811115611241576000848401525b50505050565b6000601f19601f8301169050919050565b611261816111ab565b811461126c57600080fd5b50565b611278816111cf565b811461128357600080fd5b50565b61128f816111fb565b811461129a57600080fd5b5056fea365627a7a72315820aef3ccac42d4906904cf0ad3c4363bc77df1207c68ce989a6f8ec7ffeeb0efac6c6578706572696d656e74616cf564736f6c63430005100040",
  "source": "pragma solidity ^0.5.0;\r\n// pragma abicoder v2;\r\npragma experimental ABIEncoderV2;\r\ncontract DStorage {\r\n  string public name = 'DStorage';\r\n  uint public fileCount = 0;\r\n  mapping(uint => File) public files;\r\n  // uint imageFileCount = 0;\r\n  // uint videFileCount = 0;\r\n  // uint musicFileCount = 0;\r\n  // uint docFileCount = 0;\r\n  // uint otherFileCount = 0;\r\n  struct File {\r\n    uint fileId;\r\n    string fileHash;\r\n    uint fileSize;\r\n    string fileType;\r\n    string fileName;\r\n    string fileDescription;\r\n    string[] tags;\r\n    bool isPrivate;\r\n    address[] shareTo;\r\n    uint uploadTime;\r\n    address payable uploader;\r\n  }\r\n\r\n  event FileUploaded(\r\n    uint fileId,\r\n    string fileHash,\r\n    uint fileSize,\r\n    string fileType,\r\n    string fileName, \r\n    string fileDescription,\r\n    string[] tags,\r\n    bool isPrivate,\r\n    address[] shareTo,\r\n    uint uploadTime,\r\n    address payable uploader\r\n  );\r\n\r\n  constructor() public {\r\n  }\r\n\r\n  \r\n  \r\n//  function memcmp(bytes memory a, bytes memory b) internal pure returns(bool){\r\n//         return (a.length == b.length) && (keccak256(a) == keccak256(b));\r\n//     }\r\n//     function strcmp(string memory a, string[] b) internal pure returns(bool){\r\n//       for(uint i=0;i<b.length();i++)\r\n//       {\r\n//         if(memcmp(bytes(a), bytes(b[i])))\r\n//         return true;\r\n\r\n//       }\r\n//       return false;\r\n//     }\r\n  function uploadFile(string memory _fileHash, uint _fileSize, string memory _fileType, string memory _fileName, string memory _fileDescription,string[] memory _tags,address[] memory _shareTo,bool _isPrivate) public {\r\n    // Make sure the file hash exists\r\n    require(bytes(_fileHash).length > 0);\r\n    // Make sure file type exists\r\n    require(bytes(_fileType).length > 0);\r\n    // Make sure file description exists\r\n    require(bytes(_fileDescription).length > 0);\r\n    // Make sure file fileName exists\r\n    require(bytes(_fileName).length > 0);\r\n    // Make sure uploader address exists\r\n    require(msg.sender!=address(0)); \r\n    \r\n    // Make sure file size is more than 0\r\n    require(_fileSize>0);\r\n\r\n    // Increment file id\r\n    fileCount ++;\r\n    // if(_fileType==\"IMAGE/PNG\" || _fileType==\"IMAGE/JPEG\" || _fileType==\"IMAGE/SVG\" \r\n    // || _fileType==\"IMAGE/AVIF\" || _fileType==\"IMAGE/APNG\" || _fileType==\"IMAGE/WEBP\" \r\n    // || _fileType==\"IMAGE/GIF\" || _fileType==\"IMAGE/BPM\" || _fileType==\"IMAGE/ICO\"|| _fileType==\"IMAGE/TIFF\" )\r\n    \r\n    // if(strcmp(_fileType,[\"IMAGE/PNG\",\"IMAGE/JPEG\",\"IMAGE/SVG\",\"IMAGE/GIF\",\"IMAGE/WEBP\",\"IMAGE/AVIF\",\"IMAGE/APNG\",\"IMAGE/BMP\",\"IMAGE/ICO\",\"IMAGE/TIFF\"]))\r\n    // {\r\n    //   imageFileCount++;\r\n    // }\r\n    // Add File to the contract\r\n    files[fileCount] = File(fileCount, _fileHash, _fileSize, _fileType, _fileName, _fileDescription,_tags,_isPrivate,_shareTo, now, msg.sender);\r\n    // Trigger an event\r\n    emit FileUploaded(fileCount, _fileHash, _fileSize, _fileType, _fileName, _fileDescription,_tags,_isPrivate,_shareTo, now, msg.sender);\r\n  }\r\n}",
  "sourcePath": "C:\\Users\\borah\\desktop\\zendisk\\src\\contracts\\DStorage.sol",
  "compiler": {
    "name": "solc",
    "version": "0.5.16+commit.9c3226ce.Emscripten.clang"
  },
  "schemaVersion": "3.4.3",
  "updatedAt": "2022-01-08T07:57:38.298Z",
  "networkType": "ethereum",
  "devdoc": {
    "methods": {}
  },
  "userdoc": {
    "methods": {}
  }
}